:020000040000FA
:0400000025EF0BF0ED
:10125C00306A1200C58AC588120047EC0CF01200E7
:10126C00C58666EC09F01200C58266EC09F0120026
:10127C00C58066EC09F01200C58466EC09F012001A
:10128D00CF2FBC2FA32FC62F01000136EC09F03054
:10129D00EC09F0C95012003A6E3AC0C9FF66EC096C
:1012AD00F0120047EC0CF01E0E936EF19E1200F83A
:1012BD002FF52FE32FE62FE92FEC2FEF2FF22F9E97
:1012CD00A66BEF09F06DEF09F066EF09F09E96122F
:1012DD000094869488280EC66E310EC86EC79CC7C2
:1012ED008E9E96A1961200426E000E3A6E4150F0FF
:1012FD00EC09F0010E3A6E4250F0EC09F012003A92
:10130D006E9EA88CEF09F08EEF09F087EF09F09E25
:10131D00983AC0ADFF1200426E3EEC09F0D00E526D
:10132D00EC09F0425052EC09F0415052EC09F042F8
:10133D00EC09F01200948E949CAC9CAC8AAC98ACE9
:10134D0096AC84AB8EAB9CAB88B896810EAF6E9E7F
:10135D00989E9A12003B6E3EEC09F0D00E52EC09AD
:10136D00F03B5052EC09F03AEC09F0D10E52EC0979
:10137D00F04CEC09F03C6E42EC09F03C501200C20E
:10138D009AC288C296C294C280C186C194C182C1DC
:10139D0090C19AC198C09EC094C082C090C08AC0AE
:1013AD0098C096C46AC36A12003B6E3EEC09F0A069
:1013BD000E52EC09F03B5052EC09F03AEC09F0A159
:1013CD000E52EC09F04CEC09F03C6E42EC09F03C8D
:1013DD005012003B6E3AB0F6EF09F0F9EF09F082CA
:1013ED0082FAEF09F082923BC083FF82848294954A
:1013FD008E828082928284829483BE08EF0AF00AE4
:10140D00EF0AF001EF0AF08290959E1200000EB1E6
:10141D00EC09F0436E43508009416E000E92EC09C9
:10142D00F0020EB1EC09F0436E43504009416E02DB
:10143D000E92EC09F0000EB1EC09F0436E43507FB3
:10144D000B416E000E92EC09F01200C282C2B23254
:10145D00EF0AF034EF0AF02DEF0AF0C3CF3CF0069F
:10146D000E3D6ED8903C323D2E38EF0AF03C50C404
:10147D00CF3EF03F6AD8903E363F36D8903E363F4D
:10148D00363E103A6E3F503B6E1200406E3EEC09F8
:10149D00F0A00E52EC09F0405052EC09F03D5052C4
:1014AD00EC09F042EC09F00B0E3F6EB80E3E6E3EAD
:1014BD0006D8A03F063E2806E13F28D8A469EF0ACA
:1014CD00F06BEF0AF05EEF0AF01200000E1B6E00DB
:1014DD000E1A6E000E236E000E226E5F0E3C6E2FE6
:1014ED000E3D6E800E3E6EEFEC0AF04E0E406E20FD
:1014FD000E3F6E3F06D8A040063F2806E14028D893
:10150D00A48BEF0AF08DEF0AF080EF0AF01200A421
:10151D00EF0AF03BC0F6FF3CC0F7FFF86A050EF787
:10152D006403D00800F55005D0F6CFE9FFF7CFEAF8
:10153D00FFEF5086EC09F03B4A3C2A3BC0F6FF3CDE
:10154D00C0F7FFF86A050EF76403D00800F55005E3
:10155D00D0F6CFE9FFF7CFEAFFEF500009D8A4BAD4
:10156D00EF0AF0BCEF0AF090EF0AF012003C503D8C
:10157D0010D8B4C4EF0AF0C6EF0AF0EAEF0AF00192
:10158D000E3E6ECEEF0AF0D8903C363D363E2A3DEB
:10159D00AED3EF0AF0D5EF0AF0CAEF0AF03C503A9D
:1015AD005C3D503B58D8A0DEEF0AF0E0EF0AF0E4C6
:1015BD00EF0AF03C503A5E3D503B5AD8903D323CDC
:1015CD00323E2ED5EF0AF03AC03AF03BC03BF01256
:1015DD0000000E3A6E3E50F0EC09F00CEF0BF001EE
:1015ED000E3A6E3CC0F6FF3DC0F7FFF86A050EF7E8
:1015FD006403D00800F55005D0F6CFE9FFF7CFEA28
:10160D00FFEF50F0EC09F03C4A3D2A3CC0F6FF3D9F
:10161D00C0F7FFF86A050EF76403D00800F5500512
:10162D00D0F6CFE9FFF7CFEAFFEF500009D8A4229B
:10163D00EF0BF024EF0BF0F6EF0AF01200BC0EF6F4
:10164D006E120EF76E000EF86E00EE60F010EE10DA
:10165D00F00900F5CFEEFFE550E150FAE18D0EF601
:10166D006E120EF76E000EF86E00EE55F010EE0BCA
:10167D00F00900F5CFEEFFE550E150FAE101EE0083
:10168D00F0B40EEE6AE806FDE100EE70F00A0EEE23
:10169D006AE806FDE100EE01F0390EEE6AE806FD9E
:1016AD00E1000EF86E000193EF0FF03A6E52EC0D63
:1016BD00F03B6E3A04D8A466EF0BF068EF0BF088A0
:1016CD00EF0BF03B28D8B46EEF0BF070EF0BF07C06
:1016DD00EF0BF05F50D8B476EF0BF078EF0BF07C9A
:1016ED00EF0BF05F6A3B5093EF0BF03B28D8A482D1
:1016FD00EF0BF084EF0BF092EF0BF0010E5F6E929B
:10170D00EF0BF03A50D8A48EEF0BF090EF0BF09258
:10171D00EF0BF079EF0BF0FF0E1200000E3A6E0199
:10172D000EF0EC09F04D0E3C6E2F0E3D6E800E3E10
:10173D006EEFEC0AF0000E426E000E416EC0EF0B24
:10174D00F0120E4102F3CF3FF0F4CF40F04202F31E
:10175D00504026000E3F243B6E010E40203C6E8E05
:10176D00EC0AF0DD0E3B6E2F0E3C6E8EEC0AF04156
:10177D004A422A2250415C23504258D8A0C9EF0B4F
:10178D00F0CBEF0BF0A7EF0BF0010E306E12000057
:10179D000E3F6E000E3E6E3C503D10D8B4D9EF0B8F
:1017AD00F0DBEF0BF003EF0CF0010E406EE3EF0BEF
:1017BD00F0D8903C363D36402A3DAEE8EF0BF0EACE
:1017CD00EF0BF0DFEF0BF0D8903E363F363C503A42
:1017DD005C3D503B58D8A0F6EF0BF0F8EF0BF0FD49
:1017ED00EF0BF03C503A5E3D503B5A3E80D8903D59
:1017FD00323C32402EEAEF0BF03EC03AF03FC03B98
:10180D00F01200020EB1EC09F0056E010EB1EC09FB
:10181D00F0066E000EB1EC09F0076E05AC19EF0C79
:10182D00F01BEF0CF026EF0CF005380F0B010B3011
:10183D000F316E05500F0B300F326E2FEF0CF00580
:10184D00380F0B030B300F316E05500F0B300F326D
:10185D006E3A0E336E06380F0B0F0B300F346E06CB
:10186D00500F0B300F356E3A0E366E07380F0B0FCB
:10187D000B300F376E07500F0B300F386E396A1261
:10188D0000956A9450F80B946E8290C30E3C6ECD09
:10189D000EE82EFED73C2EFCD70000000E3A6E331C
:1018AD000EF0EC09F01B0E3C6E9E0EE82EFED73CA2
:1018BD002EFCD700D0000E3A6E330EF0EC09F0A6D8
:1018CD000EE82EFED700D0000E3A6E330EF0EC0966
:1018DD00F000D000D00000000E3A6E020EF0EC09C0
:1018ED00F0A60EE82EFED700D0000E3A6E380EF0A0
:1018FD00EC09F0A60EE82EFED700D0000E3A6E01D0
:10190D000EF0EC09F0040E3C6E3E0EE82EFED73CB8
:10191D002EFCD7000E3A6E0C0EF0EC09F0A60EE878
:10192D002EFED700D012003F6A3BBEA2EF0CF0A0F6
:10193D00EF0CF0A8EF0CF03A6C3B1ED8B03B2A012F
:10194D000E3F6E3DBEAFEF0CF0ADEF0CF0B3EF0CF4
:10195D00F03C6C3D1ED8B03D2A3C503D10D8B4BA79
:10196D00EF0CF0BCEF0CF0E0EF0CF0010E3E6EC48E
:10197D00EF0CF0D8903C363D363E2A3DAEC9EF0C0B
:10198D00F0CBEF0CF0C0EF0CF03C503A5C3D503B0F
:10199D0058D8A0D4EF0CF0D6EF0CF0DAEF0CF03CE9
:1019AD00503A5E3D503B5AD8903D323C323E2ECBA4
:1019BD00EF0CF03F50D8B4E6EF0CF0E8EF0CF0EC84
:1019CD00EF0CF03A6C3B1ED8B03B2A3AC03AF03BD4
:1019DD00C03BF012003F6A3DBEF9EF0CF0F7EF0C83
:1019ED00F0FFEF0CF03C6C3D1ED8B03D2A010E3FD0
:1019FD006E3BBE06EF0DF004EF0DF00CEF0DF03A5F
:101A0D006C3B1ED8B03B2A010E3F1A000E416E00F2
:101A1D000E406E3C503D10D8B417EF0DF019EF0D80
:101A2D00F041EF0DF0010E3E6E21EF0DF0D8903C20
:101A3D00363D363E2A3DAE26EF0DF028EF0DF01D5A
:101A4D00EF0DF0D890403641363C503A5C3D503B5E
:101A5D0058D8A034EF0DF036EF0DF03BEF0DF03C04
:101A6D00503A5E3D503B5A4080D8903D323C323E1C
:101A7D002E28EF0DF03F50D8B447EF0DF049EF0D84
:101A8D00F04DEF0DF0406C411ED8B0412A40C03AE8
:101A9D00F041C03BF01200819A818E818C81B25A47
:101AAD00EF0DF05CEF0DF05FEF0DF0010ED4EF0DCB
:101ABD00F081B464EF0DF066EF0DF069EF0DF004F9
:101ACD000ED4EF0DF081B66EEF0DF070EF0DF073DB
:101ADD00EF0DF0070ED4EF0DF081B878EF0DF07A21
:101AED00EF0DF07DEF0DF00A0ED4EF0DF0819C811E
:101AFD008E818A81B285EF0DF087EF0DF08AEF0DA3
:101B0D00F0020ED4EF0DF081B48FEF0DF091EF0DCB
:101B1D00F094EF0DF0050ED4EF0DF081B699EF0DA9
:101B2D00F09BEF0DF09EEF0DF0080ED4EF0DF08150
:101B3D00B8A3EF0DF0A5EF0DF0A8EF0DF00B0ED43F
:101B4D00EF0DF0819E818A818C81B2B0EF0DF0B2E4
:101B5D00EF0DF0B5EF0DF0030ED4EF0DF081B4BA2B
:101B6D00EF0DF0BCEF0DF0BFEF0DF0060ED4EF0D45
:101B7D00F081B6C4EF0DF0C6EF0DF0C9EF0DF00911
:101B8D000ED4EF0DF081B8CEEF0DF0D0EF0DF0D3F8
:101B9D00EF0DF00C0ED4EF0DF0FF0E12004250D9E8
:101BAD006EDA6ADF500001706F4250D96EDA6A0149
:101BBD000ED926DF50716F4250D96EDA6A030ED9F5
:101BCD0026DF50726F4250D96EDA6A040ED926DFC5
:101BDD0050736F4250D96EDA6A060ED926DF5074F3
:101BED006F4250D96EDA6A070ED926DF50756F43F2
:101BFD00C0F6FF44C0F7FF0800F5CF76F0010E43A5
:101C0D0024476E000E4420486E47C0F6FF48C0F7CB
:101C1D00FF0800F5CF77F045C03AF046C03BF00025
:101C2D000E3D6E0A0E3C6EF1EC0CF03A50300F008A
:101C3D0001786F45C03AF046C03BF0000E3D6E0A8C
:101C4D000E3C6E9AEC0CF03A50300F0001796F7A21
:101C5D006B224A232A235009E10B0E225CD8A03AAD
:101C6D00EF0EF03CEF0EF075EF0EF02E6A000E4CFD
:101C7D006E000E4B6E000E4E6E000E4D6E4B500AEA
:101C8D000DF3504D240A0FDBEC09F03D6E2E504C38
:101C9D00EC0AF02E2A4D4A4E2A4EBE5FEF0EF04E44
:101CAD005009E10A0E4D5CD8A05FEF0EF061EF0E0A
:101CBD00F045EF0EF04B4A4C2A4CBE6FEF0EF04C38
:101CCD005009E1090E4B5CD8A06FEF0EF071EF0ECD
:101CDD00F041EF0EF0000E236E0A0E226E000E4A3A
:101CED006E000E496E87EF0EF04950700FD96EDA07
:101CFD006ADF503D6E2E504CEC0AF0494A4A2A2EAE
:101D0D002A4950700FD96EDA6ADF50D8A491EF0EC0
:101D1D00F093EF0EF07BEF0EF01200C6EC09F02FF2
:101D2D0028D8B49CEF0EF09EEF0EF047EF0FF02F7A
:101D3D0004D8A4A4EF0EF0A6EF0EF0C0EF0EF02025
:101D4D004A212A000E176E000E166E310E426E20BD
:101D5D0050020DF350600FD96EDA6ADECF43F0DD1D
:101D6D00CF44F018C045F019C046F0D5EC0DF00386
:101D7D00EF0FF0020E2F18D8A4C7EF0EF0C9EF0E1B
:101D8D00F0E4EF0EF02006D8A02106000E176E002D
:101D9D000E166E310E426E2050020DF350600FD9AB
:101DAD006EDA6ADECF43F0DDCF44F018C045F0198E
:101DBD00C046F0D5EC0DF003EF0FF0030E2F18D841
:101DCD00A4EBEF0EF0EDEF0EF003EF0FF0000E179A
:101DDD006E010E166E310E426E2050020DF35060E4
:101DED000FD96EDA6ADECF43F0DDCF44F018C0456F
:101DFD00F019C046F0D5EC0DF021BE10EF0FF0211B
:101E0D005006E12004D8B00EEF0FF010EF0FF014D4
:101E1D00EF0FF0000E216E010E206E21BE20EF0F90
:101E2D00F0215009E1070E205CD8A020EF0FF02221
:101E3D00EF0FF026EF0FF0000E216E070E206E163D
:101E4D00501710D8A42DEF0FF02FEF0FF03FEF0F1D
:101E5D00F02050020DF350600FD96EDA6ADECF3CE0
:101E6D00F0DDCF3DF0C90E3E6EEFEC0AF047EF0FFF
:101E7D00F0E00E3C6E2F0E3D6EC90E3E6EEFEC0A7D
:101E8D00F008EC0CF0310E3C6E3D6AC00E3E6EEF6C
:101E9D00EC0AF02CEC0AF03AC018F03BC019F0191E
:101EAD005009E1630E185CD8A05FEF0FF061EF0FE2
:101EBD00F065EF0FF0000E196E630E186E185019C5
:101ECD0010D8A46CEF0FF06EEF0FF072EF0FF00063
:101EDD000E196E000E186ECF0E416E18C03AF01925
:101EED00C03BF0000E3D6E0A0E3C6EBDEC0AF03AA2
:101EFD0050300F7AEC09F0CE0E416E18C03AF01941
:101F0D00C03BF0000E3D6E0A0E3C6ECEEC0BF03A6F
:101F1D0050300F7AEC09F0120033EC09F02EEC0979
:101F2D00F0A1EC09F06FEC09F00DEC0AF058EC099A
:101F3D00F0D80E3C6E2F0E3D6E800E3E6EEFEC0A0D
:101F4D00F0FB0E3C6E2F0E3D6E890E3E6EEFEC0AD1
:101F5D00F08F0E3C6E2F0E3D6E8E0E3E6EEFEC0A28
:101F6D00F0F80E3C6E2F0E3D6EC90E3E6EEFEC0A74
:101F7D00F0010E5CEC0BF02F6E0B0E2F18D8A4CACF
:101F8D00EF0FF0CCEF0FF0EAEF0FF01A4A1B2A001B
:101F9D000E3A6E010EF0EC09F0010E306E800E411E
:101FAD006E2A0E7AEC09F055C03CF056C03DF08318
:101FBD000E3E6EEFEC0AF057C03CF058C03DF0C33A
:101FCD000E3E6EEFEC0AF00C0E2F18D8A4F1EF0FA9
:101FDD00F0F3EF0FF0A2EF10F0000E3A6E010EF0DD
:101FED00EC09F0D80E3C6E2F0E3D6E800E3E6EEF5E
:101FFD00EC0AF0FB0E3C6E2F0E3D6E890E3E6EEF21
:10200D00EC0AF08F0E3C6E2F0E3D6E8E0E3E6EEF77
:10201D00EC0AF0F80E3C6E2F0E3D6EC90E3E6EEFC3
:10202D00EC0AF0306A1C041D10D8A420EF10F02229
:10203D00EF10F0A2EF10F0000E1D6E000E1C6E28BA
:10204D00C03AF029C03BF0000E3D6E0A0E3C6EBD4D
:10205D00EC0AF03AC053F03BC054F028C03AF029D6
:10206D00C03BF0000E3D6E0A0E3C6ECEEC0BF03A0E
:10207D0038F00B5310416E020E92EC09F02AC03A63
:10208D00F02BC03BF0000E3D6E0A0E3C6EBDEC0A0F
:10209D00F03AC053F03BC054F02AC03AF02BC03B8D
:1020AD00F0000E3D6E0A0E3C6ECEEC0BF03A38F0A1
:1020BD000B5310416E010E92EC09F026C03AF02739
:1020CD00C03BF0000E3D6E0A0E3C6EBDEC0AF03AC0
:1020DD00C053F03BC054F026C03AF027C03BF0008F
:1020ED000E3D6E0A0E3C6ECEEC0BF03A38F00B53F3
:1020FD0010416E000E92EC09F0A2EF10F094EC0E70
:10210D00F0BFEF0FF0C9EC10F0BFEF0FF02DEC1298
:10211D00F0BFEF0FF094EC0BF0BFEF0FF0000E3AA5
:10212D006E010EF0EC09F06CEC0AF0BFEF0FF0B998
:10213D00EC13F0BFEF0FF03050536E546A54500053
:10214D000AD8B4ACEF10F0BFEF0FF05350000AD81F
:10215D00B485EF10F0010AD8B489EF10F0030AD856
:10216D00B48DEF10F0010AD8B49EEF10F0070AD825
:10217D00B491EF10F0010AD8B495EF10F0BFEF0F46
:10218D00F000EF00F02F04D8A4CFEF10F0D1EF1036
:10219D00F0EFEF10F012501310D8B4D8EF10F0DAB2
:1021AD00EF10F0DCEF10F02C4A2D2A0E4A0F2A000A
:1021BD000E256E010E246E000E116E000E106E12A5
:1021CD004A132A000E3A6E010EF0EC09F016EF11CB
:1021DD00F0020E2F18D8A4F6EF10F0F8EF10F0164D
:1021ED00EF11F010501110D8B4FFEF10F001EF11F6
:1021FD00F004EF11F02C06D8A02D060E06D8A00F76
:10220D0006000E256E020E246E104A112A000E13C2
:10221D006E000E126E000E3A6E010EF0EC09F00B10
:10222D000E2F18D8A41DEF11F01FEF11F0B0EF1104
:10223D00F01BBE2BEF11F01B5009E1020E1A5CD8FA
:10224D00A02BEF11F02DEF11F0B0EF11F0000E3AC1
:10225D006E010EF0EC09F00FBE3EEF11F00F5009BC
:10226D00E1040E0E5CD8A03EEF11F040EF11F044EA
:10227D00EF11F0000E0F6E030E0E6E0FBE4BEF1131
:10228D00F049EF11F04FEF11F0000E0F6E000E0E32
:10229D006E0E500F10D8A456EF11F058EF11F05FDD
:1022AD00EF11F0000E3A6E010EF0EC09F0020E3057
:1022BD006E020E0E180F10D8A467EF11F069EF1112
:1022CD00F070EF11F0000E3A6E010EF0EC09F00413
:1022DD000E306E0E040F10D8A477EF11F079EF11B8
:1022ED00F099EF11F0000E3A6E010EF0EC09F0923C
:1022FD000E3C6E2F0E3D6E800E3E6EEFEC0AF04ED4
:10230D000E446E200E436E4306D8A04406432806A5
:10231D00E14428D8A495EF11F097EF11F08AEF1151
:10232D00F0050E306E030E0E180F10D8A4A1EF118C
:10233D00F0A3EF11F0B0EF11F0000E3A6E010EF0B8
:10234D00EC09F008EC0CF0030E306E000E1F6E0061
:10235D000E1E6E2DBEB7EF11F0B5EF11F0BBEF11E4
:10236D00F0000E2D6E000E2C6E2DBEC7EF11F02D50
:10237D005009E1030E2C5CD8A0C7EF11F0C9EF1185
:10238D00F0CDEF11F0000E2D6E020E2C6E240425F3
:10239D0010D8A4D4EF11F0D6EF11F0FCEF11F080AE
:1023AD000E416E200E7AEC09F02C50020DF35055B3
:1023BD000FD96EDA6ADECF3CF0DDCF3DF0830E3EF5
:1023CD006EEFEC0AF02C50020DF350570FD96EDA68
:1023DD006ADECF3CF0DDCF3DF0C30E3E6EEFEC0A72
:1023ED00F0C00E416E2A0E7AEC09F0020E2418256B
:1023FD0010D8A404EF12F006EF12F02CEF12F0C07B
:10240D000E416E200E7AEC09F02C50020DF3505552
:10241D000FD96EDA6ADECF3CF0DDCF3DF0830E3E94
:10242D006EEFEC0AF02C50020DF350570FD96EDA07
:10243D006ADECF3CF0DDCF3DF0C30E3E6EEFEC0A11
:10244D00F0800E416E2A0E7AEC09F01200000E1B80
:10245D006E000E1A6E22502310D8A438EF12F03AE7
:10246D00EF12F06CEF12F0700E3C6E2F0E3D6E8081
:10247D000E3E6EEFEC0AF0B00E3C6E2F0E3D6EC0B0
:10248D000E3E6EEFEC0AF0200E436EA10E446E0769
:10249D000E456E000E466E4306000E445A455A46D2
:1024AD005A43280AE1442808E1452806E14628D880
:1024BD00A463EF12F065EF12F052EF12F0000E3A36
:1024CD006E010EF0EC09F0B8EF13F00A500B10D8B6
:1024DD00A473EF12F075EF12F06FEF13F0810E3C55
:1024ED006E2F0E3D6E800E3E6EEFEC0AF0000E0B61
:1024FD006E010E0A6E000E486E000E476E000E4AFB
:10250D006E000E496E64EF13F0000E4C6E000E4B14
:10251D006E4B504C10D8A496EF12F098EF12F0B20B
:10252D00EF12F0120E4902F3CF3FF0F4CF40F04A14
:10253D0002F3504026000E3F24416E010E40204212
:10254D006E4B504124D96E4C504220DA6E495030BA
:10255D000FDF6E52EF13F04B044C10D8B4B9EF12DD
:10256D00F0BBEF12F0CFEF12F00A0E4B184C10D853
:10257D00B4C3EF12F0C5EF12F0CFEF12F00D0E4B0A
:10258D00184C10D8A4CDEF12F0CFEF12F0E8EF12E7
:10259D00F0120E4902F3CF3FF0F4CF40F04A02F3B0
:1025AD00504026000E3F24416E010E4020426E4BDE
:1025BD00504124D96E4C504220DA6E200EDF6E52FF
:1025CD00EF13F0040E4B184C10D8B4F0EF12F0F2DC
:1025DD00EF12F0FCEF12F0070E4B184C10D8A4FAC6
:1025ED00EF12F0FCEF12F015EF13F0120E4902F39B
:1025FD00CF3FF0F4CF40F04A02F3504026000E3F9B
:10260D0024416E010E4020426E4B504124D96E4C38
:10261D00504220DA6E3A0EDF6E52EF13F0100E4B71
:10262D00184C10D8A41DEF13F01FEF13F037EF1354
:10263D00F0120E4902F3CF3FF0F4CF40F04A02F30F
:10264D00504026000E3F24416E010E4020426E4B3D
:10265D00504124D96E4C504220DA6EDF6A52EF138E
:10266D00F0120E4902F3CF3FF0F4CF40F04A02F3DF
:10267D00504026000E3F24416E010E4020426E4B0D
:10268D00504124D96E4C504220DA6E4750DBEC0994
:10269D00F0DF6E474A482A4B4A4C2A4CBE60EF1376
:1026AD00F04C5009E1110E4B5CD8A060EF13F062B5
:1026BD00EF13F08FEF12F0494A4A2A2250495C235A
:1026CD00504A58D8A06DEF13F06FEF13F08BEF1247
:1026DD00F0120E0C02F3CF3FF0F4CF40F00D02F3E9
:1026ED00504026000E3F243C6E010E40203D6EC032
:1026FD000E3E6EEFEC0AF0010E5CEC0BF02F6E024D
:10270D000E2F18D8A48DEF13F08FEF13F0A4EF1345
:10271D00F0FF0E22243F6EFF0E2320406E3F500C23
:10272D005C40500D58D8B09EEF13F0A0EF13F0A4FD
:10273D00EF13F00C4A0D2AB8EF13F02F04D8A4AA0A
:10274D00EF13F0ACEF13F0B8EF13F00C500D10D8F1
:10275D00B4B3EF13F0B5EF13F0B8EF13F00C06D8D8
:10276D00A00D061200000E1D6E010E1C6E000E3A1D
:10277D006E010EF0EC09F0000E1B6E000E1A6E1EAF
:10278D00501F10D8A4CDEF13F0CFEF13F032EF148C
:10279D00F0000E1F6E010E1E6E08EC0CF0D00E3107
:1027AD0024436E446AFF0E44220A0E4302F3CF45C2
:1027BD00F0F4CF46F04402F350462645C028F046CB
:1027CD00C029F032502824436E000E2920446ED0CB
:1027DD000E4324286EFF0E4420296ED00E34244360
:1027ED006E446AFF0E44220A0E4302F3CF45F0F405
:1027FD00CF46F04402F350462645C02AF046C02B82
:10280D00F035502A24436E000E2B20446ED00E431B
:10281D00242A6EFF0E44202B6ED00E3724436E44B7
:10282D006AFF0E44220A0E4302F3CF45F0F4CF4661
:10283D00F04402F350462645C026F046C027F03836
:10284D00502624436E000E2720446ED00E432426BE
:10285D006EFF0E4420276E5D505E10D8B439EF1414
:10286D00F03CEF14F0010E3DEF14F0000E5D6E5EC6
:10287D006A020E2F18D8A446EF14F048EF14F07327
:10288D00EF14F009BE4DEF14F04FEF14F061EF149B
:10289D00F009BE5DEF14F0095007E1020E085CD897
:1028AD00B05BEF14F05DEF14F061EF14F0084A091E
:1028BD002A73EF14F009BE6DEF14F0095009E1020F
:1028CD000E085CD8A06DEF14F06FEF14F073EF14D9
:1028DD00F0000E096E000E086E2F04D8A479EF14C7
:1028ED00F07BEF14F0D0EF14F008500910D8A4824B
:1028FD00EF14F084EF14F097EF14F0295007E1175F
:10290D000E285CD8B08DEF14F08FEF14F093EF1408
:10291D00F0284A292A97EF14F0000E296E000E2890
:10292D006E08040910D8A49EEF14F0A0EF14F0B3B4
:10293D00EF14F02B5007E13B0E2A5CD8B0A9EF1431
:10294D00F0ABEF14F0AFEF14F02A4A2B2AB3EF14CB
:10295D00F0000E2B6E000E2A6E020E08180910D80C
:10296D00A4BBEF14F0BDEF14F0D0EF14F027500717
:10297D00E13B0E265CD8B0C6EF14F0C8EF14F0CCD6
:10298D00EF14F0264A272AD0EF14F0000E276E0020
:10299D000E266E08500910D8A4D7EF14F0D9EF14F5
:1029AD00F0C2EF15F05D505E10D8B4E0EF14F0E218
:1029BD00EF14F04EEF15F0C00E416E28C03AF0291D
:1029CD00C03BF0000E3D6E0A0E3C6ECEEC0BF03AA5
:1029DD0050300F7AEC09F0C10E416E28C03AF02943
:1029ED00C03BF0000E3D6E0A0E3C6EBDEC0AF03A97
:1029FD0050300F7AEC09F0C20E416E3A0E7AEC09A6
:102A0D00F0C30E416E2AC03AF02BC03BF0000E3DD4
:102A1D006E0A0E3C6ECEEC0BF03A50300F7AEC098C
:102A2D00F0C40E416E2AC03AF02BC03BF0000E3DB3
:102A3D006E0A0E3C6EBDEC0AF03A50300F7AEC097E
:102A4D00F0C50E416E3A0E7AEC09F0C60E416E26B7
:102A5D00C03AF027C03BF0000E3D6E0A0E3C6ECE24
:102A6D00EC0BF03A50300F7AEC09F0C70E416E26A0
:102A7D00C03AF027C03BF0000E3D6E0A0E3C6EBD15
:102A8D00EC0AF03A50300F7AEC09F0A2EF15F0C0D5
:102A9D000E416E200E7AEC09F0C10E416E200E7AB9
:102AAD00EC09F0C20E416E3A0E7AEC09F0C30E41FC
:102ABD006E2AC03AF02BC03BF0000E3D6E0A0E3C64
:102ACD006ECEEC0BF03A50300F7AEC09F0C40E419B
:102ADD006E2AC03AF02BC03BF0000E3D6E0A0E3C44
:102AED006EBDEC0AF03A50300F7AEC09F0C50E418C
:102AFD006E3A0E7AEC09F0C60E416E26C03AF027FA
:102B0D00C03BF0000E3D6E0A0E3C6ECEEC0BF03A63
:102B1D0050300F7AEC09F0C70E416E26C03AF027FF
:102B2D00C03BF0000E3D6E0A0E3C6EBDEC0AF03A55
:102B3D0050300F7AEC09F0A00E476E860E486E01EC
:102B4D000E496E000E4A6EFF0E4726FF0E4822FFFD
:102B5D000E4922FF0E4A2247280AE1482808E1497A
:102B6D002806E14A28D8A4BEEF15F0C0EF15F0AA4B
:102B7D00EF15F0A5EF17F008040910D8A4C9EF154B
:102B8D00F0CBEF15F0B4EF16F05D505E10D8B4D267
:102B9D00EF15F0D4EF15F040EF16F0C00E416E2892
:102BAD00C03AF029C03BF0000E3D6E0A0E3C6ECED1
:102BBD00EC0BF03A50300F7AEC09F0C10E416E2853
:102BCD00C03AF029C03BF0000E3D6E0A0E3C6EBDC2
:102BDD00EC0AF03A50300F7AEC09F0C20E416E3A21
:102BED000E7AEC09F0C30E416E2AC03AF02BC03BB1
:102BFD00F0000E3D6E0A0E3C6ECEEC0BF03A5030EE
:102C0D000F7AEC09F0C40E416E2AC03AF02BC03B8E
:102C1D00F0000E3D6E0A0E3C6EBDEC0AF03A5030DF
:102C2D000F7AEC09F0C50E416E3A0E7AEC09F0C63A
:102C3D000E416E26C03AF027C03BF0000E3D6E0AE5
:102C4D000E3C6ECEEC0BF03A50300F7AEC09F0C71B
:102C5D000E416E26C03AF027C03BF0000E3D6E0AC5
:102C6D000E3C6EBDEC0AF03A50300F7AEC09F09440
:102C7D00EF16F0C00E416E28C03AF029C03BF000AF
:102C8D000E3D6E0A0E3C6ECEEC0BF03A50300F7AC4
:102C9D00EC09F0C10E416E28C03AF029C03BF0009E
:102CAD000E3D6E0A0E3C6EBDEC0AF03A50300F7AB6
:102CBD00EC09F0C20E416E3A0E7AEC09F0C30E41EA
:102CCD006E200E7AEC09F0C40E416E200E7AEC09DE
:102CDD00F0C50E416E3A0E7AEC09F0C60E416E2625
:102CED00C03AF027C03BF0000E3D6E0A0E3C6ECE92
:102CFD00EC0BF03A50300F7AEC09F0C70E416E260E
:102D0D00C03AF027C03BF0000E3D6E0A0E3C6EBD82
:102D1D00EC0AF03A50300F7AEC09F0A00E4B6E86AB
:102D2D000E4C6E010E4D6E000E4E6EFF0E4B26FFBD
:102D3D000E4C22FF0E4D22FF0E4E224B280AE14C67
:102D4D002808E14D2806E14E28D8A4B0EF16F0B2C0
:102D5D00EF16F09CEF16F0A5EF17F0020E0818090C
:102D6D0010D8A4BCEF16F0BEEF16F0A5EF17F05D6E
:102D7D00505E10D8B4C5EF16F0C7EF16F033EF174D
:102D8D00F0C00E416E28C03AF029C03BF0000E3D58
:102D9D006E0A0E3C6ECEEC0BF03A50300F7AEC0909
:102DAD00F0C10E416E28C03AF029C03BF0000E3D37
:102DBD006E0A0E3C6EBDEC0AF03A50300F7AEC09FB
:102DCD00F0C20E416E3A0E7AEC09F0C30E416E2A36
:102DDD00C03AF02BC03BF0000E3D6E0A0E3C6ECE9D
:102DED00EC0BF03A50300F7AEC09F0C40E416E2A1C
:102DFD00C03AF02BC03BF0000E3D6E0A0E3C6EBD8E
:102E0D00EC0AF03A50300F7AEC09F0C50E416E3AEB
:102E1D000E7AEC09F0C60E416E26C03AF027C03B83
:102E2D00F0000E3D6E0A0E3C6ECEEC0BF03A5030BB
:102E3D000F7AEC09F0C70E416E26C03AF027C03B61
:102E4D00F0000E3D6E0A0E3C6EBDEC0AF03A5030AD
:102E5D000F7AEC09F087EF17F0C00E416E28C03ADB
:102E6D00F029C03BF0000E3D6E0A0E3C6ECEEC0B11
:102E7D00F03A50300F7AEC09F0C10E416E28C03A8D
:102E8D00F029C03BF0000E3D6E0A0E3C6EBDEC0A03
:102E9D00F03A50300F7AEC09F0C20E416E3A0E7ACC
:102EAD00EC09F0C30E416E2AC03AF02BC03BF00086
:102EBD000E3D6E0A0E3C6ECEEC0BF03A50300F7A92
:102ECD00EC09F0C40E416E2AC03AF02BC03BF00065
:102EDD000E3D6E0A0E3C6EBDEC0AF03A50300F7A84
:102EED00EC09F0C50E416E3A0E7AEC09F0C60E41B2
:102EFD006E200E7AEC09F0C70E416E200E7AEC09A9
:102F0D00F0A00E4F6E860E506E010E516E000E52D9
:102F1D006EFF0E4F26FF0E5022FF0E5122FF0E5256
:102F2D00224F280AE1502808E1512806E15228D8FD
:102F3D00A4A3EF17F0A5EF17F08FEF17F012000015
:102F4D00456E746572656420696E746F207561726B
:102F5D007400414C4C204C4F475320434C4541523B
:102F6D004544004E4F204C4F475320202020202019
:102F7D00202020002320202054494D45202020458D
:102F8D005620535000636C656172696E67202E2E5A
:102F9D002E2E2E2E2E00446F776E6C6F61645F6C3B
:102FAD006F6700454E544552454420202020006354
:102FBD006C6561725F6C6F67005365745F74696DEA
:102FCD006500766965775F6C6F670054494D450004
:102FDD000A0D0043200047310047320047330047B8
:102FED003400473500524700474E004F4E004752C0
:022FFD000000D2
:020000040020DA
:08000000FFFFFFFFFFFFFFFF00
:020000040030CA
:0E000000FF071F1FFF8285FF0FC00FE00F409C
:00000001FF
